{
  "contractName": "ALBTToken",
  "abi": [
    {
      "constant": true,
      "inputs": [],
      "name": "totalSupply",
      "outputs": [
        {
          "name": "",
          "type": "uint256"
        }
      ],
      "payable": false,
      "stateMutability": "view",
      "type": "function",
      "signature": "0x18160ddd"
    },
    {
      "constant": true,
      "inputs": [],
      "name": "total",
      "outputs": [
        {
          "name": "",
          "type": "uint256"
        }
      ],
      "payable": false,
      "stateMutability": "view",
      "type": "function",
      "signature": "0x2ddbd13a"
    },
    {
      "inputs": [],
      "payable": false,
      "stateMutability": "nonpayable",
      "type": "constructor",
      "signature": "constructor"
    }
  ],
  "bytecode": "0x608060405260008055600060015534801561001957600080fd5b50620f424060008190555060d6806100326000396000f3fe6080604052600436106049576000357c0100000000000000000000000000000000000000000000000000000000900463ffffffff16806318160ddd14604e5780632ddbd13a146076575b600080fd5b348015605957600080fd5b506060609e565b6040518082815260200191505060405180910390f35b348015608157600080fd5b50608860a4565b6040518082815260200191505060405180910390f35b60005481565b6001548156fea165627a7a723058203f8d34882b4b40525c6152a16a59e37a4ff2c50b65615849f3ec90bf7d8e054e0029",
  "source": "pragma solidity >=0.5.0;\n\ncontract ALBTToken{\n    \n    uint256 public totalSupply = 0; \n    uint256 public total = 0; \n\n    constructor() public{\n        totalSupply = 1000000;\n    }\n}",
  "sourcePath": "/Users/mishalrizvi/Projects/token_sale/contracts/ALBTToken.sol",
  "compiler": {
    "name": "solc",
    "version": "0.5.0+commit.1d4f565a.Emscripten.clang"
  },
  "schemaVersion": "3.0.1",
  "updatedAt": "2023-04-17T16:42:26.062Z",
  "devdoc": {
    "methods": {}
  },
  "userdoc": {
    "methods": {}
  }
}